:100000000C9462000C948A000C948A000C948A0070
:100010000C948A000C948A000C948A000C948A0038
:100020000C948A000C948A000C948A000C948A0028
:100030000C948A000C948A000C948A000C948A0018
:100040000C945F030C948A000C948A000C948A0030
:100050000C948A000C948A000C948A000C948A00F8
:100060000C948A000C948A000000000024002700F1
:100070002A0000000000250028002B0000000000DE
:1000800023002600290004040404040404040202DA
:100090000202020203030303030301020408102007
:1000A0004080010204081020010204081020000012
:1000B0000008000201000003040700000000000027
:1000C0000000570511241FBECFEFD8E0DEBFCDBF23
:1000D00011E0A0E0B1E0ECEAFBE002C005900D9277
:1000E000AA32B107D9F721E0AAE2B1E001C01D921E
:1000F000AC3BB207E1F710E0C2E6D0E004C02197C4
:10010000FE010E94CE05C136D107C9F70E94A9039E
:100110000C94D4050C94000096E0899FD001112422
:10012000AB5CBE4F90967C936E935F9791E09196F7
:100130009C939197E091A201F091A3019091A1016C
:10014000992339F0309751F0811108C08091510105
:100150000994309719F05C968C91FACF0895CF925C
:10016000DF92EF92FF920F931F9396E0899FF00129
:100170001124EB5CFE4F11A2278D30A121303105F7
:1001800051F178F02230310509F451C023303105A6
:1001900009F452C01F910F91FF90EF90DF90CF9024
:1001A00008956623B9F361E070E00E948C002FB7D8
:1001B000F8948091310190913201A0913301B09176
:1001C00034012FBF80938D0190938E01A0938F01F6
:1001D000B0939001DFCF9FB7F894C0903101D090D9
:1001E0003201E0903301F09034019FBF00918D0106
:1001F00010918E0120918F0130919001C01AD10A87
:10020000E20AF30A00919F011091A00130E020E082
:100210000C151D052E053F0550F462E070E01F919E
:100220000F91FF90EF90DF90CF900C948C006111B4
:10023000B1CF63E070E0F3CF70E060E0F0CF8330E7
:1002400081F028F4813099F08230A9F00895873048
:10025000A9F08830C9F08430B1F4809180008F7D9E
:1002600003C0809180008F7780938000089584B5CB
:100270008F7784BD089584B58F7DFBCF8091B000CA
:100280008F778093B00008958091B0008F7DF9CF73
:10029000CF93DF93282F30E0F901E255FF4F84918F
:1002A000F901E656FF4FD491F901EA57FF4FC49187
:1002B000CC23A1F081110E941F01EC2FF0E0EE0F82
:1002C000FF1FE458FF4FA591B491EC91ED2381E01D
:1002D00090E009F480E0DF91CF91089580E090E014
:1002E000FACF1F93CF93DF93282F30E0F901E25527
:1002F000FF4F8491F901E656FF4FD491F901EA5777
:10030000FF4FC491CC23A9F0162F81110E941F0129
:10031000EC2FF0E0EE0FFF1FEE58FF4FA591B491C8
:100320008FB7F894EC91111108C0D095DE23DC93BF
:100330008FBFDF91CF911F910895DE2BF8CFCF9320
:10034000DF9390E0FC01E656FF4F24918A579F4FC0
:10035000FC0184918823C9F090E0880F991FFC016B
:10036000E859FF4FA591B491FC01EE58FF4FC5919C
:10037000D49161110DC09FB7F8948C912095822380
:100380008C938881282328839FBFDF91CF91089584
:10039000623051F49FB7F8943C91822F809583236B
:1003A0008C93E8812E2BEFCF8FB7F894EC912E2B06
:1003B0002C938FBFEACF862F642F0C949F01862F3A
:1003C000642F0C947101862F0C944801AF92BF9258
:1003D000CF92DF92EF92FF920F931F93CF93DF9311
:1003E0006C017B018B01040F151FEB015E01AE1840
:1003F000BF08C017D10759F06991D601ED91FC9162
:100400000190F081E02DC6010995892B79F7C5018E
:10041000DF91CF911F910F91FF90EF90DF90CF90E0
:10042000BF90AF900895089590E080E00895CF9335
:10043000DF93EC0160E08E810E94710161E08E81AA
:100440000E94710160E08E810E9471018BE891E051
:100450000197F1F7DF91CF910895CF92DF92EF925C
:10046000FF920F931F93CF93DF936C017C0187E082
:10047000E80EF11CD0E0C0E0062F10E0B8010C2E11
:1004800002C0759567950A94E2F76170F701819152
:100490007F010E9471012196C430D10579F7C60110
:1004A000DF91CF911F910F91FF90EF90DF90CF9050
:1004B0000C941702CF92DF92EF92FF920F931F934B
:1004C000CF93DF93EC01F62E642F8C810E94710193
:1004D0008D818F3F19F060E00E9471010F2D10E0B7
:1004E0008F8584FF25C06E0187E0C80ED11CF12CDA
:1004F000E12CB8010E2C02C0759567950A94E2F7BD
:100500006170F60181916F010E947101FFEFEF1A96
:10051000FF0A88E0E816F10461F7CE01DF91CF9180
:100520001F910F91FF90EF90DF90CF900C941702E6
:10053000B80184E0759567958A95E1F7CE010E9430
:100540002D026F2DCE01DF91CF911F910F91FF9062
:10055000EF90DF90CF900C942D0240E0682F84EA5A
:1005600091E00C945A02CF93DF93823029F490915A
:10057000B30198609093B3018093B7011092B801D2
:1005800080E48093B90180E18093BA0180E5809393
:10059000BB0161E08091A8010E949F018091A901A7
:1005A0008F3F19F061E00E949F0161E08091AA01F4
:1005B0000E949F01C4EAD1E09E01245A31408091FB
:1005C000B30184FD0BC084E090E021962817390721
:1005D00044F461E08E810E949F01EECF88E090E0BC
:1005E000F4CF8BE39DE00197F1F760E08091A801E3
:1005F0000E94710160E08091AA010E9471018091C6
:10060000A9018F3F19F060E00E9471018091B30150
:1006100084FD39C063E084EA91E00E942D02CBE4BE
:10062000D6E4CE010197F1F763E084EA91E00E94FD
:100630002D022197F1F763E084EA91E00E942D02F8
:1006400083E592E00197F1F762E084EA91E00E948D
:100650002D028091B30180620E94AD0284E08093FC
:10066000B4018CE00E94AD0281E00E94AD028BE3F8
:100670009FE10197F1F782E08093B50186E0DF9179
:10068000CF910C94AD0280620E94AD028BE496E49F
:100690000197F1F78091B30180620E94AD0283E57A
:1006A00092E00197F1F78091B30180620E94AD0260
:1006B000D0CF41E00E945A0281E090E008951F925D
:1006C0000F920FB60F9211242F933F938F939F9306
:1006D000AF93BF938091310190913201A09133018A
:1006E000B09134013091300123E0230F2D3758F5BC
:1006F0000196A11DB11D209330018093310190938B
:100700003201A0933301B093340180912C01909178
:100710002D01A0912E01B0912F010196A11DB11DB7
:1007200080932C0190932D01A0932E01B0932F0163
:10073000BF91AF919F918F913F912F910F900FBEDD
:100740000F901F90189526E8230F0296A11DB11D4A
:10075000D2CF789484B5826084BD84B5816084BD35
:1007600085B5826085BD85B5816085BD80916E004F
:10077000816080936E001092810080918100826080
:1007800080938100809181008160809381008091BD
:1007900080008160809380008091B10084608093AC
:1007A000B1008091B00081608093B00080917A00A8
:1007B000846080937A0080917A00826080937A00CE
:1007C00080917A00816080937A0080917A008068BD
:1007D00080937A001092C10082E00E94B302412C03
:1007E000512C3201439422242A94322C50E0C52EFD
:1007F00050E0D52E51E05093A1018FB7F89440916D
:1008000031015091320160913301709134018FBFF9
:100810008091910190919201A0919301B0919401E6
:10082000481B590B6A0B7B0B80919D0190919E0197
:10083000B0E0A0E084179507A607B70708F012C13B
:10084000C0E080919B01C81760F4E0919701F0919E
:100850009801EC0FF11D62E080810E949F01CF5F43
:10086000F0CF912C80919C01981608F05FC0092D63
:1008700010E0E0919901F0919A01E00FF11F61E021
:1008800080810E949F01E0919901F0919A01E00F0F
:10089000F11F60E080810E947101D301C201092C27
:1008A00004C0880F991FAA1FBB1F0A94D2F75C01CE
:1008B0007C01E094F094812C80919B018816F8F4DF
:1008C000C82DD0E0E0919701F0919801EC0FFD1F49
:1008D00080810E9448012496CC0FDD1FCB5CDE4F47
:1008E000892B41F4888199818A299B29998388835E
:1008F0008394E2CF888199818E219F21F7CFE09167
:100900009901F0919A01E00FF11F61E080810E944E
:1009100071018091990190919A01080F191F60E06F
:10092000F80180810E949F0193949CCFC5E3D1E0A0
:10093000FE01878D90A1892B21F4148E368E258E91
:1009400011A2369651E0E137F50799F710E0809152
:100950009B01181708F053C000E0E12EF12CEE0CBB
:10096000FF1CC701835C9E4F7C0120919C010217F4
:1009700008F043C0F70160817181002E02C07695B6
:1009800067950A94E2F7129F90011124200F311D00
:10099000E5E3F1E080E0458D568D2417350709F435
:1009A00084C08F5F36968A30B1F760FF24C0E5E3DC
:1009B000F1E090E080E0448D411118C0E091950194
:1009C000F0919601E20FF31F408156E0589FF0012D
:1009D000599FF00D1124EB5CFE4F448F368F258F0D
:1009E00010A2178E61E00E94AF0005C001963696F6
:1009F0008A30910501F70F5FB8CF1F5FA8CF80E065
:100A000099A19111892F269691E0C137D907C1F795
:100A10009FB7F894409131015091320160913301B8
:100A2000709134019FBF4093910150939201609364
:100A30009301709394018823A9F080915601882333
:100A400089F08091540190915501019759F460917A
:100A5000510161110AC0C114D10409F4CBCE0E9426
:100A60000000C8CE1092A101F6CFC0912A01D0910A
:100A70002B01C031D10571F48091B501982F91609F
:100A80009093B50185600E94AD0210922B011092E7
:100A90002A01E1CF41E084EA91E00E945A022196C6
:100AA000D0932B01C0932A01D6CF61709CCF1092B6
:100AB000A7011092A60181E291E09093A501809395
:100AC000A40181E08093A8018FEF8093A901109287
:100AD000AA0185E08093AB0184E08093AC0183E0C0
:100AE0008093AD0182E08093AE011092AF0110922D
:100AF000B0011092B1011092B2011092B30181E0E5
:100B00000E94B3021092370110923B0110923A01F9
:100B100010923C0187E191E090933601809335017A
:100B2000E1E5F1E01082148213821582369681E0AD
:100B3000ED38F807B9F783E091E09093980180933E
:100B4000970180E091E090939A018093990184E06D
:100B500080939B0183E080939C0187E091E09093D8
:100B60009601809395018AE090E090939E01809396
:100B70009D0184EF91E09093A00180939F011092DA
:100B8000A3011092A2011092910110929201109271
:100B90009301109294011092A1010895EE0FFF1F8E
:0C0BA0000590F491E02D0994F894FFCF2B
:100BAC000D0C0B0A09080731323334353637383916
:100BBC002A302300000000DB01DF01E3010000000C
:0A0BCC00005903E6011402130200B1
:00000001FF
